{
  "contractName": "ShilaCoin",
  "abi": [
    {
      "inputs": [],
      "stateMutability": "nonpayable",
      "type": "constructor"
    },
    {
      "anonymous": false,
      "inputs": [
        {
          "indexed": true,
          "internalType": "address",
          "name": "_from",
          "type": "address"
        },
        {
          "indexed": true,
          "internalType": "address",
          "name": "_to",
          "type": "address"
        },
        {
          "indexed": false,
          "internalType": "uint256",
          "name": "_value",
          "type": "uint256"
        }
      ],
      "name": "Transfer",
      "type": "event"
    },
    {
      "inputs": [],
      "name": "isOwner",
      "outputs": [
        {
          "internalType": "bool",
          "name": "",
          "type": "bool"
        }
      ],
      "stateMutability": "view",
      "type": "function",
      "constant": true
    },
    {
      "inputs": [
        {
          "internalType": "address",
          "name": "receiver",
          "type": "address"
        },
        {
          "internalType": "uint256",
          "name": "amount",
          "type": "uint256"
        }
      ],
      "name": "sendCoin",
      "outputs": [
        {
          "internalType": "bool",
          "name": "sufficient",
          "type": "bool"
        }
      ],
      "stateMutability": "nonpayable",
      "type": "function"
    },
    {
      "inputs": [],
      "name": "getBalance",
      "outputs": [
        {
          "internalType": "uint256",
          "name": "",
          "type": "uint256"
        }
      ],
      "stateMutability": "view",
      "type": "function",
      "constant": true
    },
    {
      "inputs": [
        {
          "internalType": "address[]",
          "name": "receiver",
          "type": "address[]"
        },
        {
          "internalType": "uint256[]",
          "name": "amount",
          "type": "uint256[]"
        }
      ],
      "name": "sendCoinRewards",
      "outputs": [],
      "stateMutability": "nonpayable",
      "type": "function"
    }
  ],
  "bytecode": "0x608060405234801561001057600080fd5b5033600160006101000a81548173ffffffffffffffffffffffffffffffffffffffff021916908373ffffffffffffffffffffffffffffffffffffffff160217905550620f42406000803373ffffffffffffffffffffffffffffffffffffffff1673ffffffffffffffffffffffffffffffffffffffff16815260200190815260200160002081905550610a51806100a76000396000f3fe608060405234801561001057600080fd5b506004361061004c5760003560e01c806312065fe01461005157806359c2f9911461006f5780638f32d59b1461008b57806390b98a11146100a9575b600080fd5b6100596100d9565b60405161006691906107bf565b60405180910390f35b610089600480360381019061008491906106ba565b61011f565b005b610093610365565b6040516100a09190610784565b60405180910390f35b6100c360048036038101906100be919061067e565b6103bd565b6040516100d09190610784565b60405180910390f35b60008060003373ffffffffffffffffffffffffffffffffffffffff1673ffffffffffffffffffffffffffffffffffffffff16815260200190815260200160002054905090565b600160009054906101000a900473ffffffffffffffffffffffffffffffffffffffff1673ffffffffffffffffffffffffffffffffffffffff163373ffffffffffffffffffffffffffffffffffffffff16146101af576040517f08c379a00000000000000000000000000000000000000000000000000000000081526004016101a69061079f565b60405180910390fd5b60008251905060005b8181101561035f578281815181106101f9577f4e487b7100000000000000000000000000000000000000000000000000000000600052603260045260246000fd5b6020026020010151600080600160009054906101000a900473ffffffffffffffffffffffffffffffffffffffff1673ffffffffffffffffffffffffffffffffffffffff1673ffffffffffffffffffffffffffffffffffffffff168152602001908152602001600020600082825461027091906108ca565b925050819055508281815181106102b0577f4e487b7100000000000000000000000000000000000000000000000000000000600052603260045260246000fd5b60200260200101516000808684815181106102f4577f4e487b7100000000000000000000000000000000000000000000000000000000600052603260045260246000fd5b602002602001015173ffffffffffffffffffffffffffffffffffffffff1673ffffffffffffffffffffffffffffffffffffffff16815260200190815260200160002060008282546103459190610874565b92505081905550808061035790610946565b9150506101b8565b50505050565b6000600160009054906101000a900473ffffffffffffffffffffffffffffffffffffffff1673ffffffffffffffffffffffffffffffffffffffff163373ffffffffffffffffffffffffffffffffffffffff1614905090565b6000816000803373ffffffffffffffffffffffffffffffffffffffff1673ffffffffffffffffffffffffffffffffffffffff16815260200190815260200160002054101561040e5760009050610522565b816000803373ffffffffffffffffffffffffffffffffffffffff1673ffffffffffffffffffffffffffffffffffffffff168152602001908152602001600020600082825461045c91906108ca565b92505081905550816000808573ffffffffffffffffffffffffffffffffffffffff1673ffffffffffffffffffffffffffffffffffffffff16815260200190815260200160002060008282546104b19190610874565b925050819055508273ffffffffffffffffffffffffffffffffffffffff163373ffffffffffffffffffffffffffffffffffffffff167fddf252ad1be2c89b69c2b068fc378daa952ba7f163c4a11628f55a4df523b3ef8460405161051591906107bf565b60405180910390a3600190505b92915050565b600061053b6105368461080b565b6107da565b9050808382526020820190508285602086028201111561055a57600080fd5b60005b8581101561058a57816105708882610600565b84526020840193506020830192505060018101905061055d565b5050509392505050565b60006105a76105a284610837565b6107da565b905080838252602082019050828560208602820111156105c657600080fd5b60005b858110156105f657816105dc8882610669565b8452602084019350602083019250506001810190506105c9565b5050509392505050565b60008135905061060f816109ed565b92915050565b600082601f83011261062657600080fd5b8135610636848260208601610528565b91505092915050565b600082601f83011261065057600080fd5b8135610660848260208601610594565b91505092915050565b60008135905061067881610a04565b92915050565b6000806040838503121561069157600080fd5b600061069f85828601610600565b92505060206106b085828601610669565b9150509250929050565b600080604083850312156106cd57600080fd5b600083013567ffffffffffffffff8111156106e757600080fd5b6106f385828601610615565b925050602083013567ffffffffffffffff81111561071057600080fd5b61071c8582860161063f565b9150509250929050565b61072f81610910565b82525050565b6000610742601d83610863565b91507f596f7520646f6e277420686176652074686520617574686f726974792e0000006000830152602082019050919050565b61077e8161093c565b82525050565b60006020820190506107996000830184610726565b92915050565b600060208201905081810360008301526107b881610735565b9050919050565b60006020820190506107d46000830184610775565b92915050565b6000604051905081810181811067ffffffffffffffff82111715610801576108006109be565b5b8060405250919050565b600067ffffffffffffffff821115610826576108256109be565b5b602082029050602081019050919050565b600067ffffffffffffffff821115610852576108516109be565b5b602082029050602081019050919050565b600082825260208201905092915050565b600061087f8261093c565b915061088a8361093c565b9250827fffffffffffffffffffffffffffffffffffffffffffffffffffffffffffffffff038211156108bf576108be61098f565b5b828201905092915050565b60006108d58261093c565b91506108e08361093c565b9250828210156108f3576108f261098f565b5b828203905092915050565b60006109098261091c565b9050919050565b60008115159050919050565b600073ffffffffffffffffffffffffffffffffffffffff82169050919050565b6000819050919050565b60006109518261093c565b91507fffffffffffffffffffffffffffffffffffffffffffffffffffffffffffffffff8214156109845761098361098f565b5b600182019050919050565b7f4e487b7100000000000000000000000000000000000000000000000000000000600052601160045260246000fd5b7f4e487b7100000000000000000000000000000000000000000000000000000000600052604160045260246000fd5b6109f6816108fe565b8114610a0157600080fd5b50565b610a0d8161093c565b8114610a1857600080fd5b5056fea264697066735822122018add793e7b1a94c5e7fdc10d8612ed01eb234e17a199119899e54cda480770c64736f6c63430008000033",
  "immutableReferences": {},
  "source": "// SPDX-License-Identifier: non\npragma solidity ^0.8.0;\n\ncontract ShilaCoin {\n    \n    mapping (address => uint) balances;\n    address owner;\n\n    event Transfer(address indexed _from, address indexed _to, uint256 _value);\n\n    constructor() {\n        owner = msg.sender;\n        balances[msg.sender] = 1000000;\n    }\n\n    // Returns ownership of contract with wiew (gas free) function for authorization on app.\n    function isOwner() public view returns(bool ){\n        return msg.sender == owner;\n    }\n\n    function sendCoin(address receiver, uint amount) public returns(bool sufficient) {\n        if (balances[msg.sender] < amount) return false;\n        balances[msg.sender] -= amount;\n        balances[receiver] += amount;\n        emit Transfer(msg.sender, receiver, amount);\n        return true;\n    }\n\n    function getBalance() public view returns(uint) {\n        return balances[msg.sender];\n    }\n\n    function sendCoinRewards(address[] memory receiver, uint[] memory amount) public {\n        require(msg.sender == owner, \"You don't have the authority.\");\n        uint len = receiver.length;\n\n        for(uint i=0; i<len; i++){\n            balances[owner] -= amount[i];\n            balances[receiver[i]] += amount[i];\n        }\n    }\n}\n",
  "sourcePath": "/home/safak/T/front/truffle/contracts/ShilaCoin.sol",
  "compiler": {
    "name": "solc",
    "version": "0.8.0+commit.c7dfd78e.Emscripten.clang"
  },
  "schemaVersion": "3.4.8",
  "updatedAt": "2022-10-30T11:15:18.366Z",
  "networkType": "ethereum",
  "devdoc": {
    "kind": "dev",
    "methods": {},
    "version": 1
  },
  "userdoc": {
    "kind": "user",
    "methods": {},
    "version": 1
  }
}